:020000040800F2
:100000000000012011600108B5450108C145010843
:10001000C7450108CD450108D3450108000000008F
:10002000000000000000000000000000D9450108A9
:10003000E545010800000000F1450108FD45010803
:1000400059600108596001085960010859600108A8
:100050005960010859600108596001085960010898
:100060005960010859600108596001080D460108EE
:100070005960010859600108596001085960010878
:1000800059600108596001082146010859600108BA
:100090003546010859600108596001085960010896
:1000A0005960010859600108596001085960010848
:1000B0004946010859600108596001085960010862
:1000C0005960010859600108596001085960010828
:1000D00059600108596001089548010859600108F4
:1000E0005960010859600108596001085960010808
:1000F00059600108596001085960010859600108F8
:1001000059600108A94801085960010859600108AF
:1001100059600108596001085960010859600108D7
:1001200059600108596001085960010859600108C7
:1001300000000000000000000000000000000000BF
:1001400000000000000000000000000000000000AF
:10015000000000000000000000000000000000009F
:10016000000000000000000000000000000000008F
:10017000000000000000000000000000000000007F
:10018000000000000000000000000000000000006F
:10019000000000000000000000000000000000005F
:1001A000000000000000000000000000000000004F
:1001B000000000000000000000000000000000003F
:1001C000000000000000000000000000000000002F
:1001D000000000000000000000000000000000001F
:0401E0005FF8E0F1F3
:1001E80010B5054C237833B9044B13B10448AFF369
:1001F80000800123237010BDD004002000000000FF
:10020800C08A030808B5034B1BB103490348AFF381
:10021800008008BD00000000D4040020C08A030844
:1002280081F0004102E000BF83F0004330B54FEA9F
:1002380041044FEA430594EA050F08BF90EA020F0C
:100248001FBF54EA000C55EA020C7FEA645C7FEA9F
:10025800655C00F0E2804FEA5454D4EB5555B8BFC2
:100268006D420CDD2C4480EA020281EA030382EA33
:10027800000083EA010180EA020281EA0303362DC5
:1002880088BF30BD11F0004F4FEA01314FF4801C98
:100298004CEA113102D0404261EB410113F0004FAA
:1002A8004FEA03334CEA133302D0524263EB430361
:1002B80094EA050F00F0A780A4F10104D5F1200EFF
:1002C8000DDB02FA0EFC22FA05F2801841F100015A
:1002D80003FA0EF2801843FA05F359410EE0A5F12E
:1002E80020050EF1200E012A03FA0EFC28BF4CF05F
:1002F800020C43FA05F3C01851EBE37101F0004515
:1003080007D54FF0000EDCF1000C7EEB00006EEB21
:100318000101B1F5801F1BD3B1F5001F0CD34908AB
:100328005FEA30004FEA3C0C04F101044FEA445202
:1003380012F5800F80F09A80BCF1004F08BF5FEA89
:10034800500C50F1000041EB045141EA050130BD69
:100358005FEA4C0C404141EB010111F4801FA4F10C
:100368000104E9D191F0000F04BF01460020B1FA61
:1003780081F308BF2033A3F10B03B3F120020CDA99
:100388000C3208DD02F1140CC2F10C0201FA0CF077
:1003980021FA02F10CE002F11402D8BFC2F1200CDC
:1003A80001FA02F120FA0CFCDCBF41EA0C01904092
:1003B800E41AA2BF01EB0451294330BD6FEA0404DB
:1003C8001F3C1CDA0C340EDC04F11404C4F12002C6
:1003D80020FA04F001FA02F340EA030021FA04F3D8
:1003E80045EA030130BDC4F10C04C4F1200220FA2F
:1003F80002F001FA04F340EA0300294630BD21FA6D
:1004080004F0294630BD94F0000F83F4801306BF32
:1004180081F480110134013D4EE77FEA645C18BF26
:100428007FEA655C29D094EA050F08BF90EA020FBD
:1004380005D054EA000C04BF1946104630BD91EAB5
:10044800030F1EBF0021002030BD5FEA545C05D1B8
:100458004000494128BF41F0004130BD14F58004F7
:100468003CBF01F5801130BD01F0004545F0FE416B
:1004780041F470014FF0000030BD7FEA645C1ABFA0
:10048800194610467FEA655C1CBF0B46024650EAD7
:10049800013406BF52EA033591EA030F41F4002103
:1004A80030BD00BF90F0000F04BF0021704730B589
:1004B8004FF4806404F132044FF000054FF000015E
:1004C80050E700BF90F0000F04BF0021704730B51F
:1004D8004FF4806404F1320410F0004548BF4042F4
:1004E8004FF000013EE700BF42004FEAE2014FEA49
:1004F80031014FEA02701FBF12F07F4393F07F4F24
:1005080081F06051704732F07F4208BF704793F026
:100518007F4F04BF41F40021704730B54FF4607439
:1005280001F0004521F000411CE700BF50EA01023C
:1005380008BF704730B54FF000050AE050EA0102E5
:1005480008BF704730B511F0004502D5404261EB55
:1005580041014FF4806404F132045FEA915C3FF496
:10056800D8AE4FF003025FEADC0C18BF03325FEA33
:10057800DC0C18BF033202EBDC02C2F1200300FAE4
:1005880003FC20FA02F001FA03FE40EA0E0021FA09
:1005980002F11444BDE600BF70B54FF0FF0C4CF4F7
:1005A800E06C1CEA11541DBF1CEA135594EA0C0FA9
:1005B80095EA0C0F00F0DEF82C4481EA030621EAE4
:1005C8004C5123EA4C5350EA013518BF52EA03351F
:1005D80041F4801143F4801338D0A0FB02CE4FF0D1
:1005E8000005E1FB02E506F00042E0FB03E54FF001
:1005F8000006E1FB03569CF0000F18BF4EF0010EF9
:10060800A4F1FF04B6F5007F64F5407404D25FEAF4
:100618004E0E6D4146EB060642EAC62141EA5551A7
:100628004FEAC52040EA5E504FEACE2EB4F1FD0CE9
:1006380088BFBCF5E06F1ED8BEF1004F08BF5FEA67
:10064800500E50F1000041EB045170BD06F0004619
:1006580046EA010140EA020081EA0301B4EB5C04C6
:10066800C2BFD4EB0C0541EA045170BD41F48011BE
:100678004FF0000E013C00F3AB8014F1360FDEBFE3
:10068800002001F0004170BDC4F10004203C35DABF
:100698000C341BDC04F11404C4F1200500FA05F342
:1006A80020FA04F001FA05F240EA020001F00042E3
:1006B80021F0004110EBD37021FA04F642EB060159
:1006C8005EEA430E08BF20EAD37070BDC4F10C0483
:1006D800C4F1200500FA04F320FA05F001FA04F247
:1006E80040EA020001F0004110EBD37041F1000133
:1006F8005EEA430E08BF20EAD37070BDC4F120053E
:1007080000FA05F24EEA020E20FA04F301FA05F2A5
:1007180043EA020321FA04F001F0004121FA04F24D
:1007280020EA020000EBD3705EEA430E08BF20EA1D
:10073800D37070BD94F0000F0FD101F00046400057
:1007480041EB010111F4801F08BF013CF7D041EAD9
:10075800060195F0000F18BF704703F000465200DD
:1007680043EB030313F4801F08BF013DF7D043EAAE
:100778000603704794EA0C0F0CEA135518BF95EA64
:100788000C0F0CD050EA410618BF52EA4306D1D1EB
:1007980081EA030101F000414FF0000070BD50EA0A
:1007A800410606BF1046194652EA430619D094EA94
:1007B8000C0F02D150EA013613D195EA0C0F05D17E
:1007C80052EA03361CBF104619460AD181EA0301D2
:1007D80001F0004141F0FE4141F470014FF000008A
:1007E80070BD41F0FE4141F4780170BD70B54FF025
:1007F800FF0C4CF4E06C1CEA11541DBF1CEA1355A5
:1008080094EA0C0F95EA0C0F00F0A7F8A4EB050486
:1008180081EA030E52EA03354FEA013100F088807D
:100828004FEA03334FF0805545EA131343EA126346
:100838004FEA022245EA111545EA10654FEA0026FB
:100848000EF000419D4208BF964244F1FD0404F5B4
:10085800407402D25B084FEA3202B61A65EB030510
:100868005B084FEA32024FF480104FF4002CB6EBCD
:10087800020E75EB030E22BFB61A754640EA0C004D
:100888005B084FEA3202B6EB020E75EB030E22BF8D
:10089800B61A754640EA5C005B084FEA3202B6EBCE
:1008A800020E75EB030E22BFB61A754640EA9C008D
:1008B8005B084FEA3202B6EB020E75EB030E22BF5D
:1008C800B61A754640EADC0055EA060E18D04FEA1B
:1008D800051545EA16754FEA06164FEAC30343EABB
:1008E80052734FEAC2025FEA1C1CC0D111F4801F88
:1008F8000BD141EA00014FF000004FF0004CB6E781
:1009080011F4801F04BF01430020B4F1FD0C88BF1F
:10091800BCF5E06F3FF6AFAEB5EB030C04BFB6EB2A
:10092800020C5FEA500C50F1000041EB045170BD1D
:100938000EF0004E4EEA113114EB5C04C2BFD4EB4A
:100948000C0541EA045170BD41F480114FF0000ECE
:10095800013C90E645EA060E8DE60CEA135594EA4A
:100968000C0F08BF95EA0C0F3FF43BAF94EA0C0F4D
:100978000AD150EA01347FF434AF95EA0C0F7FF4C2
:1009880025AF104619462CE795EA0C0F06D152EA16
:1009980003353FF4FDAE1046194622E750EA4106FA
:1009A80018BF52EA43067FF4C5AE50EA41047FF40B
:1009B8000DAF52EA43057FF4EBAE12E74FF0FF3C70
:1009C80006E000BF4FF0010C02E000BF4FF0010C41
:1009D8004DF804CD4FEA410C7FEA6C5C4FEA430CBA
:1009E80018BF7FEA6C5C1BD001B050EA410C0CBF09
:1009F80052EA430C91EA030F02BF90EA020F00206B
:100A0800704710F1000F91EA030F58BF994208BFD1
:100A180090422CBFD8176FEAE37040F0010070478E
:100A28004FEA410C7FEA6C5C02D150EA013C07D1E5
:100A38004FEA430C7FEA6C5CD6D152EA033CD3D030
:100A48005DF8040B704700BF8446104662468C462A
:100A58001946634600E000BF01B5FFF7B7FF00285D
:100A680048BF10F1000F01BD4DF808EDFFF7F4FF86
:100A78000CBF012000205DF808FB00BF4DF808ED11
:100A8800FFF7EAFF34BF012000205DF808FB00BF34
:100A98004DF808EDFFF7E0FF94BF012000205DF856
:100AA80008FB00BF4DF808EDFFF7CEFF94BF01200B
:100AB80000205DF808FB00BF4DF808EDFFF7C4FF04
:100AC80034BF012000205DF808FB00BF4FEA410C4D
:100AD8007FEA6C5C02D150EA013C0AD14FEA430C30
:100AE8007FEA6C5C02D152EA033C02D14FF000006D
:100AF80070474FF0010070474FEA410212F50012AB
:100B080015D211D56FF47873B3EB625212D94FEA4C
:100B1800C12343F0004343EA505311F0004F23FA36
:100B280002F018BF404270474FF00000704750EA8B
:100B3800013005D111F0004008BF6FF00040704748
:100B48004FF00000704700BF4FEA4102B2F1E043A6
:100B580024BFB3F5001CDCF1FE5C0DD901F0004C9C
:100B68004FEAC0024CEA5070B2F1004F40EB8300EC
:100B780008BF20F00100704711F0804F21D113F118
:100B88003872BCBF01F00040704741F480114FEA51
:100B98005252C2F11802C2F1200C10FA0CF320FADA
:100BA80002F018BF40F001004FEAC1234FEAD323F7
:100BB80003FA0CFC40EA0C0023FA02F34FEA430361
:100BC800CCE77FEA625307D150EA01331EBF4FF0EA
:100BD800FE4040F44000704701F0004040F0FE4005
:100BE80040F40000704700BF80F0004002E000BF02
:100BF80081F0004142001FBF5FEA410392EA030F00
:100C08007FEA226C7FEA236C6AD04FEA1262D2EB49
:100C18001363C1BFD218414048404140B8BF5B424E
:100C2800192B88BF704710F0004F40F4000020F0E7
:100C38007F4018BF404211F0004F41F4000121F0FD
:100C48007F4118BF494292EA030F3FD0A2F1010247
:100C580041FA03FC10EB0C00C3F1200301FA03F185
:100C680000F0004302D5494260EB4000B0F5000FA8
:100C780013D3B0F1807F06D340084FEA310102F167
:100C88000102FE2A51D2B1F1004F40EBC25008BF19
:100C980020F0010040EA03007047490040EB0000E3
:100CA80010F4000FA2F10102EDD1B0FA80FCACF112
:100CB800080CB2EB0C0200FA0CF0AABF00EBC25011
:100CC80052421843BCBFD0401843704792F0000FFF
:100CD80081F4000106BF80F400000132013BB5E752
:100CE8004FEA41037FEA226C18BF7FEA236C21D0C8
:100CF80092EA030F04D092F0000F08BF084670472D
:100D080090EA010F1CBF0020704712F07F4F04D1FA
:100D1800400028BF40F00040704712F100723CBF0D
:100D280000F50000704700F0004343F0FE4040F437
:100D3800000070477FEA226216BF08467FEA2363F5
:100D48000146420206BF5FEA412390EA010F40F4E0
:100D5800800070474FF0000304E000BF10F000432C
:100D680048BF40425FEA000C08BF704743F0964313
:100D780001464FF000001CE050EA010208BF70472E
:100D88004FF000030AE000BF50EA010208BF7047B5
:100D980011F0004302D5404261EB41015FEA010CCA
:100DA80002BF84460146002043F0B64308BFA3F1C2
:100DB8008053A3F50003BCFA8CF2083AA3EBC253A4
:100DC80010DB01FA02FC634400FA02FCC2F12002C3
:100DD800BCF1004F20FA02F243EB020008BF20F0FA
:100DE8000100704702F1200201FA02FCC2F1200260
:100DF80050EA4C0021FA02F243EB020008BF20EA55
:100E0800DC7070474FF0FF0C1CEAD0521EBF1CEA82
:100E1800D15392EA0C0F93EA0C0F6FD01A4480EA70
:100E2800010C400218BF5FEA41211ED04FF0006359
:100E380043EA501043EA5111A0FB01310CF0004085
:100E4800B1F5000F3EBF490041EAD3715B0040EAAB
:100E5800010062F17F02FD2A1DD8B3F1004F40EB7B
:100E6800C25008BF20F00100704790F0000F0CF04E
:100E7800004C08BF49024CEA502040EA51207F3A12
:100E8800C2BFD2F1FF0340EAC250704740F40000ED
:100E98004FF00003013A5DDC12F1190FDCBF00F0DE
:100EA80000407047C2F10002410021FA02F1C2F18C
:100EB800200200FA02FC5FEA310040F1000053EA28
:100EC8004C0308BF20EADC70704792F0000F00F076
:100ED800004C02BF400010F4000F013AF9D040EA7C
:100EE8000C0093F0000F01F0004C02BF490011F410
:100EF800000F013BF9D041EA0C018FE70CEAD1530E
:100F080092EA0C0F18BF93EA0C0F0AD030F0004C8D
:100F180018BF31F0004CD8D180EA010000F0004041
:100F2800704790F0000F17BF90F0004F084691F0FF
:100F3800000F91F0004F14D092EA0C0F01D1420239
:100F48000FD193EA0C0F03D14B0218BF084608D102
:100F580080EA010000F0004040F0FE4040F400004C
:100F6800704740F0FE4040F4400070474FF0FF0CDF
:100F78001CEAD0521EBF1CEAD15392EA0C0F93EA26
:100F88000C0F69D0A2EB030280EA010C49024FEA78
:100F9800402037D04FF0805343EA111143EA101331
:100FA8000CF000408B4238BF5B0042F17D024FF4E9
:100FB800000C8B4224BF5B1A40EA0C00B3EB510FC4
:100FC80024BFA3EB510340EA5C00B3EB910F24BFAD
:100FD800A3EB910340EA9C00B3EBD10F24BFA3EB32
:100FE800D10340EADC001B0118BF5FEA1C1CE0D1FA
:100FF800FD2A3FF650AF8B4240EBC25008BF20F0AD
:10100800010070470CF0004C4CEA50207F32C2BF00
:10101800D2F1FF0340EAC250704740F400004FF09D
:101028000003013A37E792F0000F00F0004C02BFCE
:10103800400010F4000F013AF9D040EA0C0093F098
:10104800000F01F0004C02BF490011F4000F013BF2
:10105800F9D041EA0C0195E70CEAD15392EA0C0F5A
:1010680008D142027FF47DAF93EA0C0F7FF470AF92
:10107800084676E793EA0C0F04D14B023FF44CAFD5
:1010880008466EE730F0004C18BF31F0004CCAD16A
:1010980030F000427FF45CAF31F000437FF43CAFA6
:1010A8005FE700BF4FF0FF3C06E000BF4FF0010CC8
:1010B80002E000BF4FF0010C4DF804CD4FEA4002AA
:1010C8004FEA41037FEA226C18BF7FEA236C11D0F4
:1010D80001B052EA530C18BF90EA010F58BFB2EBA7
:1010E800030088BFC81738BF6FEAE17018BF40F027
:1010F800010070477FEA226C02D15FEA402C05D1DB
:101108007FEA236CE4D15FEA412CE1D05DF8040B5F
:10111800704700BF844608466146FFE70FB5FFF7F2
:10112800C9FF002848BF10F1000F0FBD4DF808EDAA
:10113800FFF7F4FF0CBF012000205DF808FB00BF9B
:101148004DF808EDFFF7EAFF34BF012000205DF8F5
:1011580008FB00BF4DF808EDFFF7E0FF94BF012042
:1011680000205DF808FB00BF4DF808EDFFF7D2FF3F
:1011780094BF012000205DF808FB00BF4DF808ED82
:10118800FFF7C8FF34BF012000205DF808FB00BF4F
:101198004FEA40024FEA41037FEA226C02D15FEA3C
:1011A800402C08D17FEA236C02D15FEA412C02D19E
:1011B8004FF0000070474FF0010070474FEA4002BF
:1011C800B2F1FE4F0FD34FF09E03B3EB12620DD96D
:1011D8004FEA002343F0004310F0004F23FA02F0D7
:1011E80018BF404270474FF00000704712F1610F7E
:1011F80001D1420205D110F0004008BF6FF0004055
:1012080070474FF00000704742000ED2B2F1FE4F17
:101218000BD34FF09E03B3EB126209D44FEA0023BD
:1012280043F0004323FA02F070474FF00000704784
:1012380012F1610F01D1420202D14FF0FF30704725
:101248004FF00000704700BF53B94AB9002908BFE2
:1012580000281CBF4FF0FF314FF0FF3000F074B989
:10126800ADF1080C6DE904CE00F006F8DDF804E0F5
:10127800DDE9022304B070472DE9F0478C460446A7
:10128800089E002B4BD18A42154667D9B2FA82F2E2
:101298004AB1C2F1200701FA02F320FA07F7954094
:1012A80047EA030C94404FEA154EBCFBFEF71FFAC1
:1012B80085F80EFB17C307FB08F9210C41EA034325
:1012C800994509D9EB1807F1FF3180F01C81994540
:1012D80040F21981023F2B44A3EB0903B3FBFEF054
:1012E8000EFB103300FB08F1A4B244EA0344A14208
:1012F80009D92C1900F1FF3380F00781A14240F28F
:10130800048102382C4440EA07400027641A1EB1C1
:101318000023D440C6E900433946BDE8F0878B4234
:1013280009D9002E00F0EC800027C6E900013846F4
:101338003946BDE8F087B3FA83F7002F48D18B42CE
:1013480002D3824200F2FB80841A61EB030301207E
:101358009C46002EE0D0C6E9004CDDE702B9FFDE6E
:10136800B2FA82F2002A40F08F800127491B4FEA27
:1013780015481FFA85F9B1FBF8FE08FB1E1109FB99
:101388000EF04FEA144C4CEA0143984207D9EB1887
:101398000EF1FF3102D2984200F2CD808E461B1A20
:1013A800B3FBF8F008FB103309FB00F9A4B244EAD8
:1013B8000344A14507D92C1900F1FF3302D2A145F6
:1013C80000F2B6801846A4EB090440EA0E409EE7F6
:1013D800C7F12005BB4022FA05FC4CEA030C21FAB0
:1013E80005F44FEA1C4EB4FBFEF91FFA8CF80EFB0D
:1013F800194420FA05F3B94009FB08FA19430B0C04
:1014080043EA0444A24502FA07F200FA07F30BD9AB
:101418001CEB040409F1FF3080F08880A24540F2FB
:101428008580A9F102096444A4EB0A04B4FBFEF028
:101438000EFB104400FB08FA89B241EA0444A245B5
:1014480008D91CEB040400F1FF316BD2A24569D91D
:101458000238644440EA0940A0FB0289A4EB0A046C
:101468004C454146CE4654D351D0002E69D05A1A25
:1014780064EB0E0404FA05F522FA07F3FC401D4359
:10148800C6E90054002747E79540C2F1200321FA36
:1014980003F04FEA1548B0FBF8F71FFA85F908FB87
:1014A800170024FA03F3914007FB09FC0B43190CBE
:1014B80041EA00418C4504FA02F407D9691807F19A
:1014C800FF3031D28C452FD9023F2944A1EB0C01C2
:1014D800B1FBF8F008FB101C00FB09FE99B241EAC9
:1014E8000C418E4507D9691800F1FF3318D28E4593
:1014F80016D902382944A1EB0E0140EA07473AE71A
:101508003746304608E70F46E6E61846FBE6434509
:10151800ABD2B8EB020169EB0C0201389646A4E79E
:101528001846E8E7084695E70746CFE781467BE790
:1015380002382C4447E7AEF1020E2B442FE7384619
:1015480007E73746E8E600BF704700BF10F8012BF1
:1015580011F8013B012A28BF9A42F7D0D01A7047E8
:10156800034613F8012B002AFBD1181A01387047DB
:101578004A0011D212F5001211D20DD56FF478730A
:10158800B3EB62520ED44FEAC12343F0004343EA5F
:10159800505323FA02F070474FF00000704750EAAA
:1015A800013002D14FF0FF3070474FF00000704714
:1015B80080B500AF084B1B68074A43F0100313605F
:1015C800032000F001FF002000F008F812F0DEFD13
:1015D8000023184680BD00BF0020024080B582B0BD
:1015E80000AF786004F048FE0246094BA3FB0223D3
:1015F8009B09184600F01DFF002279684FF0FF3064
:1016080000F0EDFE002318460837BD4680BD00BF38
:10161800D34D621080B400AF044B1B680133034AFA
:10162800136000BFBD4680BC704700BF5005002056
:1016380080B400AF024B1B681846BD4680BC70479B
:101648005005002080B584B000AF78600023FB60AF
:10165800FFF7EEFFF86000BFFFF7EAFF0246FB68FE
:10166800D21A7B689A42F7D300BF1037BD4680BDB7
:1016780080B58CB000AF7860002387F82F30002346
:10168800BB6200233B6200237B627B68002B01D195
:101698000123F3E07B689B68002B7B689B6A002B27
:1016A80009D17B680022DA627B68002283F8242053
:1016B800786812F0B7FD786800F014FD034687F8E3
:1016C8002F307B689B6A03F01003002B40F0CB801F
:1016D80097F82F30002B40F0C6807B689B6A23F474
:1016E800885323F0020343F002027B689A627B6806
:1016F8005A687B681B6863498B420AD17B68DB693F
:10170800B3F5402F02D07B68DB6904E04FF4002377
:1017180001E07B68DB691A437B68D9680223FB61B7
:10172800FB6993FAA3F3BB61BB69B3FA83F301FACC
:1017380003F313433A6A13433B627B689B68B3F530
:10174800807F03D07B689B68012B02D14FF48073A4
:1017580000E00023BA6A1343BB627B685B69012B14
:1017680024D17B68DB68002B14D17B689B695A1EE7
:101778004FF460437B617B6993FAA3F33B613B6958
:10178800B3FA83F302FA03F343F40063BA6A134328
:10179800BB620BE07B689B6A43F020027B689A621D
:1017A8007B68DB6A43F001027B68DA627B681B684E
:1017B8005B6823F469417B681B68BA6A0A435A600C
:1017C8007B681B689A68304B13407A681268396ADC
:1017D8000B4393607B689B68B3F5807F03D07B687D
:1017E8009B68012B0FD17B681B695A1E4FF470034D
:1017F800FB60FB6893FAA3F3BB60BB68B3FA83F39F
:1018080002FA03F37B627B681B68DB6A23F47001CE
:101818007B681B687A6A0A43DA627B681B689A6885
:101828001A4B13403A6A9A420BD17B680022DA625B
:101838007B689B6A23F0030343F001027B689A628A
:101848001AE07B689B6A23F0120343F010027B685E
:101858009A627B68DB6A43F001027B68DA620123E3
:1018680087F82F3008E07B689B6A43F010027B689A
:101878009A62012387F82F3097F82F3018463037AF
:10188800BD4680BD003C0140FDF7E1FFFE0E1FFF95
:1018980080B584B000AF78600023FB737B6893F851
:1018A8002430012B01D10223A0E07B68012283F8B8
:1018B8002420786800F0C4FB0346FB73FB7B002BF5
:1018C80040F08F807B689B6A23F4706323F00103E8
:1018D80043F480727B689A627B681B68454A93422E
:1018E80005D1454B5B6803F47023002B15D17B6849
:1018F8009B6A23F480127B689A627B681B685B682A
:1019080003F48063002B26D07B689B6A23F4405342
:1019180043F480527B689A621DE07B689B6A43F4BB
:1019280080127B689A627B681B68334A934204D0B2
:101938007B681B682F4A93420DD12F4B5B6803F4D9
:101948008063002B07D07B689B6A23F4405343F4E1
:1019580080527B689A627B689B6A03F48053002BF1
:1019680006D07B68DB6A23F006027B68DA6202E055
:101978007B680022DA627B68002283F824207B6877
:101988001B686FF002021A607B681B685A687B68E4
:101998001B6842F020025A607B681B689B6803F44E
:1019A8006023B3F5602F13D17B681B68114A9342FB
:1019B80005D1114B5B6803F47023002B08D17B68B9
:1019C8001B689A687B681B6842F4A0029A600CE066
:1019D8007B681B689A687B681B6842F480129A606F
:1019E80003E07B68002283F82420FB7B184610372D
:1019F800BD4680BD002801400024014080B586B066
:101A080000AFF860B9607A600023FB75FB681B685B
:101A1800644A934204D0FB681B68634A934206D128
:101A2800604B5B6803F47023002B40F0B380FB68C5
:101A380093F82430012B01D10223AEE0FB68012288
:101A480083F82420F86800F0FBFA0346FB75FB7D59
:101A5800002B40F09A80FB689B6A23F4706323F0A4
:101A6800010343F48072FB689A62FB681B684E4A64
:101A7800934205D14B4B5B6803F47023002B15D1BF
:101A8800FB689B6A23F48012FB689A62FB681B68F8
:101A98005B6803F48063002B26D0FB689B6A23F401
:101AA800405343F48052FB689A621DE0FB689B6ACE
:101AB80043F48012FB689A62FB681B68394A9342B8
:101AC80004D0FB681B68384A93420DD1354B5B68DC
:101AD80003F48063002B07D0FB689B6A23F4405310
:101AE80043F48052FB689A62FB689B6A03F4805354
:101AF800002B06D0FB68DB6A23F00602FB68DA627B
:101B080002E0FB680022DA62FB68002283F82420E6
:101B1800FB681B6A254A9A62FB681B6A244ADA62D8
:101B2800FB681B6A234A1A63FB681B686FF0020292
:101B38001A60FB681B689A68FB681B6842F480722D
:101B48009A60FB68186AFB681B684C331946BA68C8
:101B58007B6800F0EDFCFB681B689B6803F460235E
:101B6800B3F5602F08D1FB681B689A68FB681B688F
:101B780042F4A0029A600FE0FB681B689A68FB6851
:101B88001B6842F480129A6006E0FB68002283F822
:101B9800242001E00123FB75FB7D18461837BD465C
:101BA80080BD00BF002401400028014061210008D9
:101BB800DD210008F921000880B582B000AF786007
:101BC8007B681B685B6803F02003202B40D17B688F
:101BD8001B681B6803F00203022B39D17B689B6AE0
:101BE80003F01003002B05D17B689B6A43F4007255
:101BF8007B689A627B681B689B6803F46023B3F573
:101C0800602F1DD17B68DB68002B19D17B681B68AE
:101C18005A687B681B6822F020025A607B689B6ABE
:101C280023F480727B689A627B689B6A03F4805312
:101C3800002B05D17B689B6A43F001027B689A629E
:101C4800786800F07CF87B681B686FF012021A60F5
:101C58007B681B685B6803F08003802B4FD17B682F
:101C68001B681B6803F00403042B48D17B689B6A3C
:101C780003F01003002B05D17B689B6A43F40052E4
:101C88007B689A627B681B689B6803F4E043B3F542
:101C9800E04F12D07B681B685B6803F48063002BFD
:101CA80025D17B681B689B6803F46023B3F5602F1C
:101CB8001DD17B68DB68002B19D17B681B685A68CB
:101CC8007B681B6822F080025A607B689B6A23F459
:101CD80080527B689A627B689B6A03F48073002B4E
:101CE80005D17B689B6A43F001027B689A62786839
:101CF80000F098FA7B681B686FF00C021A607B682A
:101D08001B685B6803F04003402B14D17B681B6899
:101D18001B6803F00103012B0DD17B689B6A43F418
:101D280080327B689A62786800F01BF87B681B68D1
:101D38006FF001021A6000BF0837BD4680BD80B44D
:101D480083B000AF786000BF0C37BD4680BC7047D9
:101D580080B483B000AF786000BF0C37BD4680BC4C
:101D6800704780B483B000AF786000BF0C37BD46C1
:101D780080BC704780B483B000AF786000BF0C3778
:101D8800BD4680BC7047000080B499B000AF786051
:101D98003960002387F85F300023BB607B6893F8C5
:101DA8002430012B01D102233EE17B68012283F814
:101DB80024203B685B68062B30D87B681B685A6B0D
:101DC8004FF478733B653B6D93FAA3F3FB64FB6CAC
:101DD800B3FA83F319463B685B68013B03FB01F3E5
:101DE8001F2101FA03F3DB4302EA03013B681A6887
:101DF8004FF47873BB65BB6D93FAA3F37B657B6D7A
:101E0800B3FA83F318463B685B68013B03FB00F3B6
:101E18009A407B681B680A435A6364E03B685B68C6
:101E28000C2B30D87B681B681A6B4FF478733B64B3
:101E38003B6C93FAA3F3FB63FB6BB3FA83F319468A
:101E48003B685B68073B03FB01F31F2101FA03F3BF
:101E5800DB4302EA03013B681A684FF47873BB64FA
:101E6800BB6C93FAA3F37B647B6CB3FA83F31846D9
:101E78003B685B68073B03FB00F39A407B681B6881
:101E88000A431A632FE07B681B68DA6A4FF4787399
:101E98003B633B6B93FAA3F3FB62FB6AB3FA83F3EE
:101EA80019463B685B680D3B03FB01F31F2101FAF0
:101EB80003F3DB4302EA03013B681A684FF47873C3
:101EC800BB63BB6B93FAA3F37B637B6BB3FA83F3BC
:101ED80018463B685B680D3B03FB00F39A407B6840
:101EE8001B680A43DA623B681B68092B2ED97B689A
:101EF8001B68DA6838233B623B6A93FAA3F3FB61F9
:101F0800FB69B3FA83F319463B681B680A3B03FB7A
:101F180001F3072101FA03F3DB4302EA03013B68FB
:101F28009A683823BB62BB6A93FAA3F37B627B6A25
:101F3800B3FA83F318463B681B680A3B03FB00F3BC
:101F48009A407B681B680A43DA602BE07B681B6851
:101F58001A6938233B613B6993FAA3F3FB60FB687A
:101F6800B3FA83F319463B681B6803FB01F30721A7
:101F780001FA03F3DB4302EA03013B689A6838235A
:101F8800BB61BB6993FAA3F37B617B69B3FA83F303
:101F980018463B681B6803FB00F39A407B681B6884
:101FA8000A431A613B681B68102B03D03B681B6807
:101FB800112B33D17B681B681E4A934225D17B685D
:101FC8001B689B6803F40003002B27D17B681B6800
:101FD8009A687B681B6842F400029A603B681B6839
:101FE800102B1BD1144B1B68144AA2FB03239A0C19
:101FF80013469B0013445B00BB6002E0BB68013BD7
:10200800BB60BB68002BF9D108E07B689B6A43F092
:1020180020027B689A62012387F85F307B68002280
:1020280083F8242097F85F3018466437BD4680BC93
:10203800704700BF00240140C800002083DE1B4316
:1020480080B584B000AF78600023FB600023BB60DC
:102058007B681B689B6803F00103012B39D07B6800
:102068001B689A687B681B6842F001029A601B4BE8
:102078001B681B4AA2FB03239B0CBB6002E0BB68E6
:10208800013BBB60BB68002BF9D1FFF7D1FAF860C0
:1020980018E0FFF7CDFA0246FB68D31A022B11D9D4
:1020A8007B689B6A43F010027B689A627B68DB6AF4
:1020B80043F001027B68DA627B68002283F82420FF
:1020C800012307E07B681B689B6803F00103012B71
:1020D800DFD1002318461037BD4680BDC800002058
:1020E80083DE1B4380B584B000AF78600023FB60BB
:1020F8007B681B689B6803F00103012B27D17B6871
:102108001B689A687B681B6822F001029A60FFF7D7
:102118008FFAF86014E0FFF78BFA0246FB68D31ACF
:10212800022B0DD97B689B6A43F010027B689A6288
:102138007B68DB6A43F001027B68DA62012307E00F
:102148007B681B689B6803F00103012BE3D0002325
:1021580018461037BD4680BD80B584B000AF7860A2
:102168007B685B6AFB60FB689B6A03F05003002B8B
:1021780027D1FB689B6A43F40072FB689A62FB688C
:102188001B689B6803F46023B3F5602F15D1FB68C7
:10219800DB68002B11D1FB689B6A23F48072FB6813
:1021A8009A62FB689B6A03F48053002B05D1FB6895
:1021B8009B6A43F00102FB689A62F868FFF7BFFD6B
:1021C80004E0FB681B6A1B6B7868984700BF1037F0
:1021D800BD4680BD80B584B000AF78607B685B6A1F
:1021E800FB60F868FFF7B4FD00BF1037BD4680BD3F
:1021F80080B584B000AF78607B685B6AFB60FB6881
:102208009B6A43F04002FB689A62FB68DB6A43F012
:102218000402FB68DA62F868FFF7ACFD00BF10370C
:10222800BD4680BD80B483B000AF786000BF0C3776
:10223800BD4680BC7047000080B485B000AF7860B0
:102248007B6803F00703FB600C4BDB68BB60BA6874
:102258004FF6FF031340BB60FB681A02BB681343C9
:1022680043F0BF6343F40033BB60044ABB68D360E8
:1022780000BF1437BD4680BC704700BF00ED00E0CA
:1022880080B400AF044BDB681B0A03F00703184651
:10229800BD4680BC704700BF00ED00E080B483B04D
:1022A80000AF0346FB71FB7903F01F02064997F95B
:1022B80007305B09012000FA02F241F8232000BF31
:1022C8000C37BD4680BC704700E100E080B483B0A5
:1022D80000AF03463960FB7197F90730002B0BDA22
:1022E8003B68DAB20C49FB7903F00F03043B120197
:1022F800D2B20B441A7609E03B68DAB2074997F97B
:1023080007301201D2B20B4483F8002300BF0C3708
:10231800BD4680BC704700BF00ED00E000E100E072
:1023280080B489B000AFF860B9607A60FB6803F0E8
:102338000703FB61FB69C3F10703042B28BF0423D0
:10234800BB61FB690433062B02D9FB69033B00E040
:1023580000237B614FF0FF32BB6902FA03F3DA43D3
:10236800BB681A407B699A404FF0FF317B6901FADC
:1023780003F3D9437B680B40134318462437BD4603
:1023880080BC704780B582B000AF78607B68013B45
:10239800B3F1807F01D301230FE00A4A7B68013B38
:1023A80053600F214FF0FF30FFF790FF054B0022DD
:1023B8009A60044B07221A60002318460837BD4666
:1023C80080BD00BF10E000E080B582B000AF78604B
:1023D8007868FFF731FF00BF0837BD4680BD80B57C
:1023E80086B000AF0346B9607A60FB7300237B6157
:1023F800FFF746FF78617A68B9687869FFF790FF58
:10240800024697F90F3011461846FFF75FFF00BFE5
:102418001837BD4680BD80B582B000AF0346FB715A
:1024280097F907301846FFF739FF00BF0837BD4650
:1024380080BD80B582B000AF78607868FFF7A2FFF2
:10244800034618460837BD4680BD000080B483B0F7
:1024580000AF78607B68042B06D1094B1B68084ADB
:1024680043F00403136005E0054B1B68044A23F09E
:102478000403136000BF0C37BD4680BC704700BF23
:1024880010E000E080B500AF00F002F800BF80BDAA
:1024980080B400AF00BFBD4680BC704780B485B033
:1024A80000AF78600023FB607B68002B01D101231B
:1024B80039E07B6893F82130002B03D17B68002238
:1024C80083F820207B68022283F821207B681B6820
:1024D8001B68FB60FB6823F47F5323F03003FB6029
:1024E8007B685A687B689B681A437B68DB681A4379
:1024F8007B681B691A437B685B691A437B689B6925
:102508001A437B68DB691343FA681343FB607B68F3
:102518001B68FA681A607B6800225A637B6801228C
:1025280083F82120002318461437BD4680BC704725
:1025380080B584B000AFF860B9607A603B60FB6832
:1025480093F82030012B01D1022336E0FB680122E9
:1025580083F82020FB68022283F82120FB681B688F
:102568001A68FB681B6822F001021A603B687A68E7
:10257800B968F86800F086FDFB681B681A68FB6894
:102588001B6842F002021A60FB681B681A68FB6845
:102598001B6842F004021A60FB681B681A68FB6833
:1025A8001B6842F008021A60FB681B681A68FB681F
:1025B8001B6842F001021A60002318461037BD4616
:1025C80080BD000080B582B000AF78607B681B6872
:1025D8001A46994B9A425ED9984B1A687B681B68D1
:1025E80097498B424FD07B681B6896498B4248D0ED
:1025F8007B681B6894498B4240D07B681B68934971
:102608008B4238D07B681B6891498B4230D07B68FD
:102618001B6890498B4228D07B681B6886498B428F
:1026280020D07B681B688C498B4219D07B681B685B
:102638008A498B4212D07B681B6889498B420AD031
:102648007B681B6887498B4202D14FF400431BE02B
:102658004FF4002318E04FF4006315E0802313E0E3
:10266800082311E04FF000630EE04FF400030BE085
:102678004FF4002308E04FF4004305E04FF40063F3
:1026880002E0802300E008231340002B14BF01233D
:102698000023DBB25DE0744B1A687B681B686849ED
:1026A8008B424FD07B681B6866498B4248D07B6859
:1026B8001B6865498B4240D07B681B6863498B4225
:1026C80038D07B681B6862498B4230D07B681B68B6
:1026D80060498B4228D07B681B6857498B4220D0C1
:1026E8007B681B685C498B4219D07B681B685B4917
:1026F8008B4212D07B681B6859498B420AD07B6891
:102708001B6858498B4202D14FF400431BE04FF439
:10271800002318E04FF4006315E0802313E008233A
:1027280011E04FF000630EE04FF400030BE04FF4AC
:10273800002308E04FF4004305E04FF4006302E093
:10274800802300E008231340002B14BF012300233B
:10275800DBB2002B00F0F8807B681B681B6803F075
:102768000803082B40F0F0807B681B681A687B68B8
:102778001B6822F008021A607B681B681A462E4BF9
:102788009A4273D97B681B682D4A93424FD07B6865
:102798001B682C4A934248D07B681B682A4A93429C
:1027A80040D07B681B68294A934238D07B681B68F5
:1027B800274A934230D07B681B68264A934228D028
:1027C8007B681B681C4A934220D07B681B68224A9E
:1027D800934219D07B681B68204A934212D07B68C9
:1027E8001B681F4A93420AD07B681B681D4A9342A4
:1027F80002D14FF400431BE04FF4002318E04FF4DC
:10280800006315E0802313E0082311E04FF0006314
:102818000EE04FF400030BE04FF4002308E04FF400
:10282800004305E04FF4006302E0802300E0082342
:10283800024A536072E000BF800002400004024078
:10284800080002401C0002403000024044000240E0
:10285800580002406C000240080402401C04024078
:102868003004024044040240000002407B681B68B8
:10287800934A93424FD07B681B68924A934248D050
:102888007B681B68904A934240D07B681B688F4ADC
:10289800934238D07B681B688D4A934230D07B685E
:1028A8001B688C4A934228D07B681B688A4A9342EB
:1028B80020D07B681B68894A934219D07B681B68C3
:1028C800874A934212D07B681B68864A93420AD093
:1028D8007B681B68844A934202D14FF400431BE093
:1028E8004FF4002318E04FF4006315E0802313E051
:1028F800082311E04FF000630EE04FF400030BE0F3
:102908004FF4002308E04FF4004305E04FF4006360
:1029180002E0802300E00823744A53607B685B6B05
:1029280043F001027B685A637B68042283F8212004
:102938007B68002283F820207B681B6B002B03D068
:102948007B681B6B786898477B681B681A46624BE4
:102958009A425ED9664B1A687B681B6858498B4255
:102968004FD07B681B6857498B4248D07B681B68EF
:1029780055498B4240D07B681B6854498B4238D0FC
:102988007B681B6852498B4230D07B681B68514971
:102998008B4228D07B681B684F498B4220D07B68CC
:1029A8001B684E498B4219D07B681B684C498B4287
:1029B80012D07B681B684B498B420AD07B681B6826
:1029C80049498B4202D14FF480431BE04FF48023E6
:1029D80018E04FF4806315E0402313E0042311E06E
:1029E8004FF080630EE04FF480030BE04FF4802338
:1029F80008E04FF4804305E04FF4806302E0402391
:102A080000E004231340002B14BF01230023DBB292
:102A180077E0364B1A687B681B6829498B4269D076
:102A28007B681B6827498B4248D07B681B6826490E
:102A38008B4240D07B681B6824498B4238D07B6826
:102A48001B6823498B4230D07B681B6821498B4225
:102A580028D07B681B6820498B4220D07B681B6884
:102A68001E498B4219D07B681B681D498B4212D0C6
:102A78007B681B681B498B420AD07B681B681A4914
:102A88008B4202D14FF4804335E04FF4802332E08B
:102A98004FF480632FE040232DE004232BE04FF018
:102AA800806328E04FF4800325E04FF4802322E080
:102AB8004FF480431FE04FF480631CE040231AE08A
:102AC800080002401C00024030000240440002405E
:102AD800580002406C000240800002400804024096
:102AE8001C0402403004024044040240000002403A
:102AF8000004024004231340002B14BF01230023C9
:102B0800DBB2002B00F0DA807B681B681B6803F0DF
:102B18000403042B40F0D2807B681B681B6803F019
:102B28002003002B07D17B681B681A687B681B6829
:102B380022F004021A607B681B681A46924B9A427C
:102B480058D97B681B68914A93424FD07B681B68B1
:102B58008F4A934248D07B681B688E4A934240D084
:102B68007B681B688C4A934238D07B681B688B4A09
:102B7800934230D07B681B68894A934228D07B688F
:102B88001B68814A934220D07B681B68854A934220
:102B980019D07B681B68844A934212D07B681B68F3
:102BA800824A93420AD07B681B68814A934202D1C9
:102BB8004FF480431BE04FF4802318E04FF4806308
:102BC80015E0402313E0042311E04FF080630EE08A
:102BD8004FF480030BE04FF4802308E04FF4804368
:102BE80005E04FF4806302E0402300E00423714ACB
:102BF800536057E07B681B68644A93424FD07B68F8
:102C08001B68634A934248D07B681B68614A9342B9
:102C180040D07B681B68604A934238D07B681B6849
:102C28005E4A934230D07B681B685D4A934228D045
:102C38007B681B68544A934220D07B681B68594ABA
:102C4800934219D07B681B68574A934212D07B681D
:102C58001B68564A93420AD07B681B68544A9342C1
:102C680002D14FF480431BE04FF4802318E04FF467
:102C7800806315E0402313E0042311E04FF08063E4
:102C88000EE04FF480030BE04FF4802308E04FF48C
:102C9800804305E04FF4806302E0402300E0042312
:102CA800454A53607B68112283F821207B68DB6AE0
:102CB800002B03D07B68DB6A786898477B681B68C1
:102CC8001A46314B9A4279D93A4B1A687B681B6885
:102CD8002E498B424FD07B681B682D498B4248D0C8
:102CE8007B681B682B498B4240D07B681B682A494C
:102CF8008B4238D07B681B6828498B4230D07B6870
:102D08001B6827498B4228D07B681B681E498B4269
:102D180020D07B681B6823498B4219D07B681B68CD
:102D280021498B4212D07B681B6820498B420AD00C
:102D38007B681B681E498B4202D14FF400531BE08D
:102D48004FF4003318E04FF4007315E0202313E02C
:102D5800022311E04FF000730EE04FF400130BE074
:102D68004FF4003308E04FF4005305E04FF40073CC
:102D780002E0202300E002231340002B14BF0123AC
:102D88000023DBB278E000BF800002400800024068
:102D98001C0002403000024044000240580002403B
:102DA8006C000240080402401C0402403004024047
:102DB800440402400004024000000240954B1A6897
:102DC8007B681B6894498B424FD07B681B6893498A
:102DD8008B4248D07B681B6891498B4240D07B6806
:102DE8001B6890498B4238D07B681B688E498B42A0
:102DF80030D07B681B688D498B4228D07B681B6864
:102E08008B498B4220D07B681B688A498B4219D03A
:102E18007B681B6888498B4212D07B681B6887498E
:102E28008B420AD07B681B6885498B4202D14FF4DC
:102E380000531BE04FF4003318E04FF4007315E023
:102E4800202313E0022311E04FF000730EE04FF44B
:102E580000130BE04FF4003308E04FF4005305E093
:102E68004FF4007302E0202300E002231340002BFC
:102E780014BF01230023DBB2002B00F0FC807B6829
:102E88001B681B6803F00203022B40F0F4807B6888
:102E98001B681B6803F02003002B07D17B681B68A5
:102EA8001A687B681B6822F002021A607B681B683C
:102EB8001A465F4B9A4258D97B681B68564A934218
:102EC8004FD07B681B68554A934248D07B681B6883
:102ED800534A934240D07B681B68524A934238D089
:102EE8007B681B68504A934230D07B681B684F4A06
:102EF800934228D07B681B684D4A934220D07B6858
:102F08001B684C4A934219D07B681B684A4A934213
:102F180012D07B681B68494A93420AD07B681B68B9
:102F2800474A934202D14FF400531BE04FF4003359
:102F380018E04FF4007315E0202313E0022311E09A
:102F48004FF000730EE04FF400130BE04FF4003322
:102F580008E04FF4005305E04FF4007302E020232B
:102F680000E00223374A536071E07B681B682A4AF5
:102F7800934269D07B681B68284A934248D07B6893
:102F88001B68274A934240D07B681B68254A9342B6
:102F980038D07B681B68244A934230D07B681B6812
:102FA800224A934228D07B681B68214A934220D04A
:102FB8007B681B681F4A934219D07B681B681E4AAE
:102FC800934212D07B681B681C4A93420AD07B68E4
:102FD8001B681B4A934202D14FF4005335E04FF46B
:102FE800003332E04FF400732FE020232DE002235A
:102FF8002BE04FF0007328E04FF4001325E04FF466
:10300800003322E04FF400531FE04FF400731CE03C
:1030180020231AE000000240080002401C00024081
:103028003000024044000240580002406C00024058
:1030380080000240080402401C04024030040240A0
:10304800440402400004024002230D4A53607B6896
:103058005A6B7B685A637B68012283F821207B685E
:10306800002283F820207B689B6A002B03D07B68B2
:103078009B6A7868984700BF0837BD4680BD00BF87
:103088000000024080B485B000AFF860B9607A6093
:103098003B60FB681B683A685A60FB685B68102BEA
:1030A80008D1FB681B687A689A60FB681B68BA6875
:1030B800DA6007E0FB681B68BA689A60FB681B68FF
:1030C8007A68DA6000BF1437BD4680BC70470000DC
:1030D80080B48BB000AF786039600023FB610023B7
:1030E800BB6100237B6100233B6200233B6100231B
:1030F8007B6233E101227B6A02FA03F3FB613B68DE
:103108001B68FA691340BB61BA69FB699A4240F0CF
:1031180022813B685B68122B34D0122B0DD8022B0E
:103128002BD0022B04D8002B31D0012B1CD048E027
:10313800032B43D0112B1BD043E08D4A934226D05A
:103148008B4A934206D88B4A934220D08A4A9342AC
:103158001DD036E0894A934219D0894A934216D045
:10316800884A934213D02CE03B68DB683B6228E036
:103178003B68DB6804333B6223E03B68DB68083369
:103188003B621EE03B68DB680C333B6219E03B683E
:103198009B68002B02D104233B6212E03B689B68CA
:1031A800012B05D108233B627B68FA691A6108E0A4
:1031B80008233B627B68FA695A6102E000233B629C
:1031C80000BFBB69FF2B01D87B6801E07B68043333
:1031D800FB60BB69FF2B02D87B6A9B0002E07B6A1D
:1031E800083B9B003B61FB681A680F213B6901FAA9
:1031F80003F3DB431A40396A3B6901FA03F31A43C4
:10320800FB681A603B685B6803F08053002B00F092
:10321800A2805D4B9B695C4A43F0010393615A4B62
:103228009B6903F00103BB60BB68584A7B6A9B0833
:10323800023352F823307B617B6A03F003039B005F
:103248000F2202FA03F3DB437A6913407B617B6840
:103258004F4A93421FD07B684E4A934219D07B68ED
:103268004D4A934213D07B684C4A93420DD07B68F9
:103278004B4A934207D07B684A4A934201D10523BF
:103288000AE0062308E0042306E0032304E00223FF
:1032980002E0012300E000237A6A02F003029200B0
:1032A80093407A6913437B6138497B6A9B080233F0
:1032B8007A6941F823203B685B6803F48033002B6C
:1032C80006D0394B1A683849BB6913430B6006E0CE
:1032D800354B1A68BB69DB43334913400B603B68C5
:1032E8005B6803F40033002B06D02F4B5A682E4935
:1032F800BB6913434B6006E02B4B5A68BB69DB4341
:10330800294913404B603B685B6803F48013002B2A
:1033180006D0254B9A682449BB6913438B6006E0A5
:10332800214B9A68BB69DB431F4913408B603B689C
:103338005B6803F40013002B06D01B4BDA681A49AC
:10334800BB691343CB6006E0174BDA68BB69DB4304
:1033580015491340CB607B6A01337B627B6A0F2B74
:103368007FF6C8AE00BF2C37BD4680BC704700BF93
:103378000000211000001110000012100000311090
:10338800000032100000221000100240000001402E
:1033980000080140000C01400010014000140140E9
:1033A80000180140001C01400004014080B489B0AD
:1033B80000AF786039600023FB610023BB61002304
:1033C8007B6100233B61A6E00122FB6902FA03F35B
:1033D8003A681340BB61BB69002B00F09980BB6958
:1033E800FF2B01D87B6801E07B680433FB60BB6975
:1033F800FF2B02D8FB699B0002E0FB69083B9B009E
:103408003B61FB681A680F213B6901FA03F3DB4350
:103418001A4004213B6901FA03F31A43FB681A6056
:103428007B68DA68BB69DB431A407B68DA60404A2C
:10343800FB699B08023352F823307B61FB6903F078
:1034480003039B000F2202FA03F37A6913407B619E
:103458007B68384A93421FD07B68374A934219D019
:103468007B68364A934213D07B68354A93420DD025
:103478007B68344A934207D07B68334A934201D130
:1034880005230AE0062308E0042306E0032304E0FA
:10349800022302E0012300E00023FA6902F003029C
:1034A800920093407A699A4232D1FB6903F0030390
:1034B8009B000F2202FA03F37B611D4AFB699B08FC
:1034C800023352F823107B69DA431948FB699B08D9
:1034D8000A40023340F823201C4B1A68BB69DB43BF
:1034E8001A4913400B60194B5A68BB69DB431749EB
:1034F80013404B60154B9A68BB69DB431349134073
:103508008B60124BDA68BB69DB4310491340CB6010
:10351800FB690133FB613A68FB6922FA03F3002B6C
:103528007FF452AF00BF2437BD4680BC704700BF50
:103538000000014000080140000C0140001001405B
:103548000014014000180140001C01400004014023
:1035580080B485B000AF78600B467B807B689A6842
:103568007B881340002B02D00123FB7301E000236A
:10357800FB73FB7B18461437BD4680BC704780B48C
:1035880083B000AF78600B467B8013467B707B78F6
:10359800002B03D07A887B681A6103E07B881A04C1
:1035A8007B681A6100BF0C37BD4680BC70470000BD
:1035B80090B585B000AF78600023FB600023BB6046
:1035C8007B68002B01D101236EE07B6893F83530CE
:1035D800DBB2002B06D17B68002283F834207868A0
:1035E80010F08EFE7B68242283F835207B681B68E8
:1035F8001A687B681B6822F001021A6002F046FE16
:10360800B860BB682A4AA2FB03239B0CFB607B685B
:103618001B68FA685A607B685B68264A934202D83E
:10362800FB68013309E0FB684FF4967202FB03F371
:10363800214AA2FB03239B0901337A6812681362AB
:103648007B681C68B968786800F0CAFB0346E361C8
:103658007B68D9697B681A6A7B681B680A431A60A9
:103668007B6819697B68DA687B681B680A439A601B
:103678007B6859697B689A697B681B680A43DA60CA
:103688007B681B681A687B681B6842F001021A6035
:103698007B6800229A637B68202283F835207B6848
:1036A800002283F83620002318461437BD4690BD03
:1036B80083DE1B43A0860100D34D621080B582B023
:1036C80000AF78607B68002B01D101231EE07B6886
:1036D800242283F835207B681B681A687B681B687E
:1036E80022F001021A60786810F036FE7B6800222A
:1036F8009A637B68002283F835207B68002283F870
:1037080036207B68002283F83420002318460837C7
:10371800BD4680BD80B586B000AFF8607A601A46B5
:103728000B467B8113463B81FB6893F83530DBB24F
:10373800202B40F0B6807B68002B02D03B89002B01
:1037480001D10123AEE042F2107301225749F86813
:1037580000F094FB0346002B01D00223A2E0FB6893
:1037680093F83430012B01D102239BE0FB6801223E
:1037780083F83420FB681B681A68FB681B6822F40E
:1037880000621A60FB68212283F83520FB6810224A
:1037980083F83620FB6800229A637B893A6A1946C7
:1037A800F86800F015FA0346002B0FD0FB689B6BF6
:1037B800042B05D1FB68002283F83420012371E033
:1037C800FB68002283F8342003236BE0FB681B6846
:1037D8005B697B61FB681B689B697B617B6934E083
:1037E800396AF86800F042FC0346002B0FD0FB68EA
:1037F8009B6B042B09D1FB681B681A68FB681B6864
:1038080042F400721A6001234CE003234AE07B680B
:103818005A1C7A601A78FB681B681A613B89013B5D
:103828003B81FB681B685B6903F00403042B0CD124
:103838003B89002B09D07B685A1C7A601A78FB6890
:103848001B681A613B89013B3B813B89002BC7D12F
:10385800396AF86800F046FC0346002B0FD0FB6875
:103868009B6B042B09D1FB681B681A68FB681B68F3
:1038780042F400721A60012314E0032312E0FB688B
:103888001B681A68FB681B6842F400721A60FB68C0
:10389800202283F83520FB68002283F83420002397
:1038A80000E0022318461837BD4680BD020010000C
:1038B80080B588B000AFF8607A601A460B467B8105
:1038C80013463B81FB6893F83530DBB2202B40F080
:1038D80079817B68002B02D03B89002B01D1012321
:1038E80071E142F2107301229549F86800F0C6FAB6
:1038F8000346002B01D0022365E1FB6893F83430BE
:10390800012B01D102235EE1FB68012283F83420F8
:10391800FB681B681A68FB681B6822F400621A605F
:10392800FB68222283F83520FB68102283F83620B2
:10393800FB6800229A637B89BA6A1946F86800F026
:10394800ABF90346002B0FD0FB689B6B042B05D10A
:10395800FB68002283F83420012334E1FB6800224D
:1039680083F8342003232EE13B89012B1BD1FB680C
:103978001B681A68FB681B6822F480621A6072B6BA
:10398800FB681B685B69FB61FB681B689B69FB61E3
:10399800FB69FB681B681A68FB681B6842F40072C5
:1039A8001A6062B6FCE03B89022B1BD1FB681B68DE
:1039B8001A68FB681B6842F400621A6072B6FB68FA
:1039C8001B685B69BB61FB681B689B69BB61BB6962
:1039D800FB681B681A68FB681B6822F480621A601F
:1039E80062B6DDE0FB681B681A68FB681B6842F476
:1039F80080621A60FB681B685B697B61FB681B68F7
:103A08009B697B617B69CBE03B89032B00F29C803F
:103A18003B89012B1AD1B96AF86800F09FFB03466D
:103A2800002B07D0FB689B6B202B01D10323CAE036
:103A38000123C8E0FB681B6819697B685A1C7A6017
:103A4800CAB21A703B89013B3B81A9E03B89022B32
:103A58002BD1BB6A00223B49F86800F00FFA0346F5
:103A6800002B01D00323AEE072B6FB681B681A680E
:103A7800FB681B6842F400721A60FB681B681969CE
:103A88007B685A1C7A60CAB21A703B89013B3B8139
:103A980062B6FB681B6819697B685A1C7A60CAB2EF
:103AA8001A703B89013B3B817AE0BB6A00222549B9
:103AB800F86800F0E3F90346002B01D0032382E005
:103AC800FB681B681A68FB681B6822F480621A602E
:103AD80072B6FB681B6819697B685A1C7A60CAB29F
:103AE8001A703B89013B3B81BB6A00221549F86883
:103AF80000F0C4F90346002B01D0032363E0FB6800
:103B08001B681A68FB681B6842F400721A60FB683D
:103B18001B6819697B685A1C7A60CAB21A703B899B
:103B2800013B3B8162B6FB681B6819697B685A1CBC
:103B38007A60CAB21A703B89013B3B8130E000BF12
:103B48000200100004000100B96AF86800F006FBE2
:103B58000346002B07D0FB689B6B202B01D1032366
:103B680031E001232FE0FB681B6819697B685A1C48
:103B78007A60CAB21A703B89013B3B81FB681B68BB
:103B88005B6903F00403042B0AD1FB681B681969FD
:103B98007B685A1C7A60CAB21A703B89013B3B8128
:103BA8003B89002B7FF430AFFB68202283F8352057
:103BB800FB68002283F83620FB68002283F8342053
:103BC800002300E0022318462037BD4680BD00BF11
:103BD80080B584B000AFF8600B467A607B81FB68E3
:103BE8001B681A68FB681B6842F480721A607B685D
:103BF80000224FF00111F86800F040F90346002B4D
:103C080001D003233FE0FB681B69B3F5804F08D15F
:103C18007B89DBB21A46FB681B6802F0FE021A6158
:103C280020E07B89DB11DBB203F00603DBB263F033
:103C38000F03DAB2FB681B681A617A681449F868DE
:103C480000F0A5F90346002B07D0FB689B6B042BFB
:103C580001D1012317E0032315E07B89DAB2FB6861
:103C68001B681A617A680B49F86800F090F90346F6
:103C7800002B07D0FB689B6B042B01D1012302E0CA
:103C8800032300E0002318461037BD4680BD00BF5F
:103C9800080001000200010080B586B000AFF8609E
:103CA8000B467A607B81FB681B681A68FB681B6897
:103CB80042F480621A60FB681B681A68FB681B681C
:103CC80042F480721A607B6800224FF00111F86894
:103CD80000F0D4F80346002B01D0032378E0FB68FA
:103CE8001B69B3F5804F08D17B89DBB243F0010330
:103CF800DAB2FB681B681A6159E07B89DB11DBB219
:103D080003F00603DBB263F00F03DAB2FB681B684B
:103D18001A617A683049F86800F039F90346002BCF
:103D280007D0FB689B6B042B01D1012350E00323D0
:103D38004EE07B89DAB2FB681B681A617A6827490A
:103D4800F86800F024F90346002B07D0FB689B6B4A
:103D5800042B01D101233BE0032339E0FB681B68F6
:103D68005B697B61FB681B689B697B617B69FB689E
:103D78001B681A68FB681B6842F480721A607B68CB
:103D880000224FF00111F86800F078F80346002B84
:103D980001D003231CE07B89DB11DBB203F00603AF
:103DA800DBB263F00E03DAB2FB681B681A617A684B
:103DB8000A49F86800F0EBF80346002B07D0FB68C7
:103DC8009B6B042B01D1012302E0032300E00023B5
:103DD80018461837BD4680BD0800010002000100E2
:103DE80080B485B000AF786039600023FB607B68E1
:103DF8005B68214A93420FD87B685B685B003A682E
:103E0800B2FBF3F3FB60FB68C3F30B03032B01D88E
:103E180004232BE0FB6829E04FF40043FB607B6838
:103E28009B68002B0BD17B685A6813465B001344D0
:103E38003A68B2FBF3F3FA681343FB600EE07B6861
:103E48005A6813469B0013449A0013443A68B2FB1D
:103E5800F3F2FB68134343F48043FB60FB68C3F34E
:103E68000B03002B01D1012300E0FB68184614372F
:103E7800BD4680BC704700BFA086010080B586B0F3
:103E880000AFF860B9603B601346FB7100237B61AB
:103E9800FDF7CEFB7861FB79002B53D118E03B6826
:103EA800B3F1FF3F14D03B68002B07D0FDF7C0FBF0
:103EB80002467B69D31A3A689A4209D2FB682022E3
:103EC80083F83520FB68002283F8342003235AE066
:103ED800BB681B0CDBB2012B0CD1FB681B685B6950
:103EE800DA43BB6813409BB2002B14BF01230023A5
:103EF800DBB20BE0FB681B689B69DA43BB681340C5
:103F08009BB2002B14BF01230023DBB2002BC6D1C8
:103F180038E03B68B3F1FF3F14D03B68002B07D073
:103F2800FDF786FB02467B69D31A3A689A4209D2A2
:103F3800FB68202283F83520FB68002283F83420B0
:103F4800032320E0BB681B0CDBB2012B0CD1FB6800
:103F58001B685B69DA43BB6813409BB2002B0CBF3C
:103F680001230023DBB20BE0FB681B689B69DA4383
:103F7800BB6813409BB2002B0CBF01230023DBB2AC
:103F8800002BC6D1002318461837BD4680BD80B522
:103F980086B000AFF860B9607A6000237B61FDF7F6
:103FA80047FB78613DE0FB681B685B6903F480634D
:103FB800B3F5806F1CD1FB681B681A68FB681B6827
:103FC80042F400721A60FB681B685A69FB681B6838
:103FD80022F480625A61FB6804229A63FB682022FB
:103FE80083F83520FB68002283F83420012339E068
:103FF8007B68B3F1FF3F14D07B68002B07D0FDF737
:1040080017FB02467B69D31A7A689A4209D2FB6881
:10401800202283F83520FB68002283F8342003230C
:1040280020E0BB681B0CDBB2012B0CD1FB681B68C2
:104038005B69DA43BB6813409BB2002B14BF0123B2
:104048000023DBB20BE0FB681B689B69DA43BB68A3
:1040580013409BB2002B14BF01230023DBB2002BBB
:10406800A1D1002318461837BD4680BD80B584B05D
:1040780000AF78603960FDF7DBFAF86026E0786811
:1040880000F0BAF80346002B01D0012326E03B6874
:10409800B3F1FF3F1AD03B68002B07D0FDF7C8FAF1
:1040A8000246FB68D31A3A689A420FD27B689B6B28
:1040B80043F020027B689A637B68202283F83520CE
:1040C8007B68002283F83420032307E07B681B68A1
:1040D8005B6903F08003802BD1D100231846103789
:1040E800BD4680BD80B584B000AF78603960FDF70B
:1040F8009FFAF86026E0786800F07EF80346002B07
:1041080001D0012326E03B68B3F1FF3F1AD03B689A
:10411800002B07D0FDF78CFA0246FB68D31A3A68E1
:104128009A420FD27B689B6B43F020027B689A63AC
:104138007B68202283F835207B68002283F83420AE
:10414800032307E07B681B685B6903F00403042B07
:10415800D1D1002318461037BD4680BD80B584B044
:1041680000AF786039600023FB60FDF761FAF86002
:1041780036E07B681B685B6903F01003102B14D1D1
:104188007B681B685A697B681B6822F010025A61B9
:104198007B6800229A637B68202283F835207B683D
:1041A800002283F83420012322E03B68002B07D04B
:1041B800FDF73EFA0246FB68D31A3A689A420FD2D4
:1041C8007B689B6B43F020027B689A637B682022A4
:1041D80083F835207B68002283F83420032307E026
:1041E8007B681B685B6903F04003402BC1D1002347
:1041F80018461037BD4680BD80B483B000AF7860E4
:104208007B681B685B6903F48063B3F5806F14D126
:104218007B681B685A697B681B6822F480625A6154
:104228007B6804229A637B68202283F835207B68A8
:10423800002283F83420012300E0002318460C37BD
:10424800BD4680BC7047F0B58BB006AF78600023E0
:10425800FB607B68002B01D10123CAE07B6893F8DF
:10426800E933DBB2002B06D17B68002283F8E82310
:10427800786811F025FA7B68032283F8E9237B68C4
:104288001B68184606F071F87B681B683B607E68FF
:104298006D4606F110040FCC0FC523682B60331D43
:1042A8000ECB386806F037F87B681B680021184683
:1042B80006F077F80023FB6037E07A68FB685B015B
:1042C8001344293301221A70FB68D9B27A68FB6853
:1042D8005B01134428330A461A70FB6899B27A685E
:1042E800FB685B01134434330A461A807A68FB681A
:1042F8005B0113442B3300221A707A68FB685B0158
:104308001344383300221A607A68FB685B0113444F
:104318003C3300221A607A68FB6802335B0113445D
:1043280000221A60FB680133FB60FB680E2BC4D9BE
:104338000023FB603CE07A68FB685B01134403F2EE
:10434800092300221A70FB68D9B27A68FB685B01FE
:10435800134403F502730A461A70FB6899B27A6827
:10436800FB685B01134434330A461A807A68FB6899
:104378005B01134403F20B2300221A707A68FB686E
:104388005B01134403F5067300221A607A68FB6820
:104398005B01134403F5077300221A607A68FB680F
:1043A80011335B01134400221A60FB680133FB6080
:1043B800FB680E2BBFD97B681B683B607E686D4627
:1043C80006F110040FCC0FC523682B60331D0ECBEC
:1043D800386805F0F2FF7B68002283F824207B68A8
:1043E800012283F8E9237B681B68184606F0FBFF67
:1043F800002318461437BD46F0BD80B582B000AF23
:1044080078607B6893F8E833012B01D1022316E02A
:104418007B68012283F8E8230121786811F0A9FC60
:104428007B681B68184606F0D4FF7B681B68184633
:1044380005F081FF7B68002283F8E82300231846F3
:104448000837BD4680BD80B584B000AF78600023D2
:10445800FB607B681B68184606F0CFFF034603F431
:104468000043B3F5004F02D1786800F021FB7B6868
:104478001B68184606F0C1FF034603F48063B3F5D2
:10448800806F12D17B681B68B3F844309AB27B689E
:104498001B6822F4806292B2A3F84420786811F075
:1044A80084F90021786800F0CFF87B681B6818460B
:1044B80006F0A3FF034603F48043B3F5804F0BD106
:1044C8007B681B68B3F844309AB27B681B6822F497
:1044D800804292B2A3F844207B681B68184606F015
:1044E8008CFF034603F40053B3F5005F0BD17B68E0
:1044F8001B68B3F844309AB27B681B6822F40052F8
:1045080092B2A3F844207B681B68184606F075FF32
:10451800034603F48053B3F5805F23D17B681B689F
:10452800B3F840309AB27B681B6822F0040292B25A
:10453800A3F840204FF43D43FB607B681B68FA6892
:1045480092B2A3F84020786811F06CF97B681B6878
:10455800B3F844309AB27B681B6822F4805292B256
:10456800A3F844207B681B68184606F046FF0346FC
:1045780003F40063B3F5006F31D17B681B68B3F8AF
:1045880044309AB27B681B6822F4006292B2A3F8A6
:1045980044207B681B68B3F840309AB27B681B687C
:1045A80042F0080292B2A3F840207B681B68B3F877
:1045B80040309AB27B681B6842F0040292B2A3F8BA
:1045C80040207B681B68184606F017FF034603F473
:1045D8008053B3F5805F02D0786811F009F97B68E1
:1045E8001B68184606F009FF034603F40073B3F589
:1045F800007F0ED17B681B68B3F844309AB27B68A1
:104608001B6822F4007292B2A3F84420786811F073
:10461800BEF87B681B68184606F0EFFE034603F4F5
:104628008073B3F5807F0BD17B681B68B3F8443087
:104638009AB27B681B6822F4807292B2A3F8442075
:1046480000BF1037BD4680BD80B582B000AF78602E
:104658000B46FB707B6893F8E833012B01D10223EA
:1046680013E07B68012283F8E8237B68FA7883F8F3
:1046780024207B681B68FA781146184606F096FED7
:104688007B68002283F8E823002318460837BD46D4
:1046980080BD80B584B000AF7860084611461A46E0
:1046A8000346FB700B463B801346BB700023FB722E
:1046B8000023FB6097F90330002B08DAFB7803F03E
:1046C8007F035B0128337A681344FB6008E0FB78BA
:1046D80003F07F035B0103F502737A681344FB6000
:1046E800FB7803F07F03DAB2FB681A7097F903309E
:1046F800DBB2DB09DBB21A46FB685A703A88FB6802
:104708001A61FB68BA78DA707B6893F8E833012B92
:1047180001D102230EE07B68012283F8E8237B683D
:104728001B68F968184605F07DFE7B68002283F84F
:10473800E823FB7A18461037BD4680BD80B584B0A3
:1047480000AF78600B46FB700023FB6097F90330DD
:10475800002B08DAFB7803F07F035B0128337A68C3
:104768001344FB6008E0FB7803F07F035B0103F56B
:1047780002737A681344FB60FB7803F07F03DAB2B4
:10478800FB681A7097F90330DBB2DB09DBB21A4613
:10479800FB685A707B6893F8E833012B01D1022338
:1047A8000EE07B68012283F8E8237B681B68F968C0
:1047B800184606F0FBF87B68002283F8E8230023FC
:1047C80018461037BD4680BD80B586B000AFF8608A
:1047D8007A603B600B46FB7200237B61FB7A03F037
:1047E8007F035B0103F50273FA6813447B617B69FD
:1047F8007A685A617B693A689A617B690022DA6152
:104808007B6900225A70FB7A03F07F03DAB27B6976
:104818001A70FB6893F8E833012B01D102231AE0E0
:10482800FB68012283F8E823FB7A03F07F03002B5F
:1048380006D1FB681B687969184606F03FFA05E05F
:10484800FB681B687969184606F038FAFB6800228D
:1048580083F8E823002318461837BD4680BD80B486
:1048680083B000AF78600B46FB70FB7803F07F03E2
:104878007A6811335B01134404331B689BB21846F2
:104888000C37BD4680BC704780B586B000AFF86075
:104898007A603B600B46FB7200237B61FB7A03F076
:1048A8007F035B012833FA6813447B617B697A686C
:1048B8005A617B693A689A617B690022DA617B698F
:1048C80001225A70FB7A03F07F03DAB27B691A700F
:1048D800FB6893F8E833012B01D102231AE0FB6847
:1048E800012283F8E823FB7A03F07F03002B06D12B
:1048F800FB681B687969184606F0E0F905E0FB6873
:104908001B687969184606F0D9F9FB68002283F814
:10491800E823002318461837BD4680BD80B584B00B
:1049280000AF78600B46FB700023FB6097F90330FB
:10493800002B08DAFB7803F07F035B0128337A68E1
:104948001344FB6006E0FB785B0103F502737A68A9
:104958001344FB60FB6801229A70FB7803F07F0325
:10496800DAB2FB681A7097F90330DBB2DB09DBB205
:104978001A46FB685A707B6893F8E833012B01D11B
:1049880002231CE07B68012283F8E8237B681B680C
:10499800F968184606F020FCFB7803F07F03002B2B
:1049A80008D17B681A687B6803F57B731946104643
:1049B80006F034FD7B68002283F8E82300231846BC
:1049C8001037BD4680BD80B584B000AF78600B4617
:1049D800FB700023FB6097F90330002B08DAFB78A3
:1049E80003F07F035B0128337A681344FB6006E019
:1049F800FB785B0103F502737A681344FB60FB687C
:104A080000229A70FB7803F07F03DAB2FB681A7011
:104A180097F90330DBB2DB09DBB21A46FB685A7040
:104A28007B6893F8E833012B01D102230EE07B6801
:104A3800012283F8E8237B681B68F968184606F0AA
:104A48002BFC7B68002283F8E823002318461037E4
:104A5800BD4680BD80B582B000AF78600B46FB7064
:104A68007B6893F8E833012B01D102231BE07B68B4
:104A7800012283F8E82397F90330002B09DA7B68D1
:104A88001A68FB7803F07F031946104605F0B5FC59
:104A980004E07B681B68184605F0BAFC7B680022B6
:104AA80083F8E823002318460837BD4680BD000078
:104AB80090B589B000AF78600023FB6100237B8349
:104AC80000237B760023FB810023BB8113E3FB8952
:104AD8009BB2DBB203F00F037B767B7E002B40F0AA
:104AE8002E81FB899BB203F01003002B4ED17B680B
:104AF8001B681B889BB27A68126823F4E14323F091
:104B080070039BB213807B682833FB617B681B684A
:104B1800B3F850309BB21A46FB691B78DB0013448C
:104B280002335B001A467B681B68134403F58063F5
:104B38001B689BB2C3F30902FB69DA61FB695A6916
:104B4800FB69DB691A44FB695A610021786810F037
:104B580007FE7B6893F82430DBB2002B00F0CB8291
:104B6800FB699B69002B40F0C6827B6893F8243070
:104B7800DBB263F07F03DAB27B681B6892B2A3F8FA
:104B88004C207B68002283F82420B4E27B6803F57C
:104B98000273FB617B681B681B889BB2BB81BB8966
:104BA8009BB203F40063002B32D07B681B68B3F818
:104BB80050309BB21A46FB691B78DB00134406335E
:104BC8005B001A467B681B68134403F580631B6807
:104BD8009BB2C3F30902FB69DA617B6818687B68DA
:104BE80003F57B71FB699A88FB69DB699BB206F068
:104BF80066FC7B681B681B8899B27B681A6840F65C
:104C08008F730B409BB21380786810F07FFD72E2BF
:104C1800BB899BB21BB2002B80F26D827B681B683C
:104C28001B8899B27B681A6840F68F730B409BB259
:104C380013807B681B68B3F850309BB21A46FB6937
:104C48001B78DB00134406335B001A467B681B683D
:104C5800134403F580631B689BB2C3F30902FB6925
:104C6800DA61FB69DB69002B11D07B681868FB6986
:104C78005969FB699A88FB69DB699BB206F01FFCDE
:104C8800FB695A69FB69DB691A44FB695A610021AF
:104C9800786810F04DFD7B681B68B3F850309BB204
:104CA80006335B001A467B681B68134403F5806370
:104CB8003B61FB691B693E2B18D9FB691B695B09C2
:104CC800FB82FB691B6903F01F03002B02D1FB8ADF
:104CD800013BFB82FB8A9B029BB26FEA43436FEA6C
:104CE80053439BB21A463B691A6012E0FB691B6981
:104CF8005B08FB82FB691B6903F00103002B02D0F0
:104D0800FB8A0133FB82FB8A9B029BB21A463B69F2
:104D18001A607B681B681B889BB223F4804323F0CE
:104D280070039CB284F480539CB284F400539CB208
:104D38007B681A689A4B23439BB21380DBE17B683C
:104D48001B681A467B7E9B0013441B889BB2BB8161
:104D5800BB899BB21BB2002B80F2D3807B681B6897
:104D68001A467B7E9B0013441B8899B27B681B689C
:104D78001A467B7E9B001A4440F68F730B409BB209
:104D880013807B7E5B0103F502737A681344FB6131
:104D9800FB699B7A002B23D17B681B68B3F85030E2
:104DA8009BB21A46FB691B78DB00134406335B0091
:104DB8001A467B681B68134403F580631B689BB223
:104DC800C3F309037B837B8B002B75D07B68186842
:104DD800FB695969FB699A887B8B06F070FB6BE06D
:104DE8007B681B681A46FB691B789B0013441B8869
:104DF8009BB203F48043002B23D07B681B68B3F875
:104E080050309BB21A46FB691B78DB00134402330F
:104E18005B001A467B681B68134403F580631B68B4
:104E28009BB2C3F309037B837B8B002B2CD07B685D
:104E38001868FB695969FB69DA887B8B06F03FFBC8
:104E480022E07B681B68B3F850309BB21A46FB69B6
:104E58001B78DB00134406335B001A467B681B682B
:104E6800134403F580631B689BB2C3F309037B8378
:104E78007B8B002B08D07B681868FB695969FB6934
:104E88001A897B8B06F01BFB7B681B681A46FB693B
:104E98001B789B0013441B889AB240F60F7313408B
:104EA80099B27B681B681A46FB691B789B001A44F9
:104EB8003C4B0B439BB21380FB69DA697B8B1A442A
:104EC800FB69DA61FB695A697B8B1A44FB695A6191
:104ED800FB699B69002B04D07A8BFB691B699A429A
:104EE80006D2FB691B781946786810F021FC08E0A7
:104EF800FB691978FB695A69FB699B697868FFF750
:104F080063FCBB899BB203F08003002B00F0F380A5
:104F18007B7E5B0128337A681344FB617B681B68DE
:104F28001A467B7E9B0013441B889BB27A681268E2
:104F380011467A7E92000A4423F4E14323F0700379
:104F48009BB21380FB699B7A002B2DD17B681B6871
:104F5800B3F850309BB21A46FB691B78DB00134448
:104F680002335B001A467B681B68134403F58063B1
:104F78001B689BB2C3F30902FB69DA61FB69DB6951
:104F8800002B00F085807B681868FB695969FB690C
:104F98009A88FB69DB699BB206F04BFA78E000BFA0
:104FA8008080FFFFC080FFFF7B681B681A46FB6993
:104FB8001B789B0013441B889BB203F04003002B13
:104FC80027D07B681B68B3F850309BB21A46FB6940
:104FD8001B78DB00134402335B001A467B681B68AE
:104FE800134403F580631B689BB2C3F30902FB6992
:104FF800DA61FB69DB69002B32D07B681868FB69D2
:105008005969FB69DA88FB69DB699BB206F011FA1A
:1050180026E07B681B68B3F850309BB21A46FB69E0
:105028001B78DB00134406335B001A467B681B6859
:10503800134403F580631B689BB2C3F30902FB6941
:10504800DA61FB69DB69002B0AD07B681868FB69A9
:105058005969FB691A89FB69DB699BB206F0E9F9B2
:105068007B681B681A46FB691B789B0013441B88E6
:105078009AB240F60F73134099B27B681B681A46C0
:10508800FB691B789B001A44234B0B439BB213808C
:105098007B681B68B3F850309BB21A46FB691B78D3
:1050A800DB00134402335B001A467B681B68134419
:1050B80003F580631B689BB2C3F30902FB69DA61DD
:1050C800FB695A69FB69DB691A44FB695A61FB6928
:1050D8009B69002B06D1FB691B781946786810F08C
:1050E8003FFB08E0FB691978FB695A69FB699B6912
:1050F8007868FFF7C9FB7B681B68B3F844309BB23C
:105108001A46FA811BB2002BFFF6E1AC00231846C1
:105118002437BD4690BD00BF80C0FFFF80B487B074
:1051280000AFF8607B600B467B8113463B81002310
:105138007B617B8903F080039BB2002B08D07B89BD
:1051480003F07F035B012833FA6813447B6106E0B0
:105158007B895B0103F50273FA6813447B613B8921
:10516800002B07D17B6900229A727B689AB27B690F
:105178009A800BE07B6901229A727B689AB27B69FC
:10518800DA807B681B0C9AB27B691A810023184667
:105198001C37BD4680BC704780B485B000AF7860CE
:1051A8007B68FB60FB6893FAA3F3BB60BB68B3FA48
:1051B80083F39B001A46054B13441A4601231360D8
:1051C80000BF1437BD4680BC704700BF80000E4248
:1051D80080B485B000AF78607B68FB60FB6893FAA9
:1051E800A3F3BB60BB68B3FA83F39B001A46054B75
:1051F80013441A460023136000BF1437BD4680BC11
:10520800704700BF80000E4280B400AF084B1B6897
:10521800074A43F002031360064B1B69054A43F033
:105228000403136130BF00BFBD4680BC704700BF98
:105238000070004000ED00E080B5E4B000AF3B1D19
:1052480018600023C7F88C313B1D1B681B6803F0EE
:105258000103002B00F04081B84B5B6803F00C039E
:10526800042B0CD0B54B5B6803F00C03082B4FD113
:10527800B24B5B6803F48033B3F5803F48D14FF4F9
:105288000033C7F88831D7F8883193FAA3F3C7F801
:105298008431D7F88431B3FA83F3DBB25B09DBB22C
:1052A80043F00103DBB2012B02D1A44B1B680BE0D6
:1052B8004FF40033C7F88031D7F8803193FAA3F35D
:1052C800C7F87C319D4B5B6A4FF40032C7F87821F0
:1052D800D7F8782192FAA2F2C7F87421D7F8742186
:1052E800B2FA82F252B242F0200252B2D2B202F0C4
:1052F8001F02D34003F00103002B00F0EC803B1D9C
:105308001B685B68002B40F0E680012300F0ABBD12
:105318003B1D1B685B68B3F5803F06D1874B1B6854
:10532800864A43F48033136030E03B1D1B685B689A
:10533800002B0CD1814B1B68804A23F48033136007
:105348007E4B1B687D4A23F4802313601EE03B1DBF
:105358001B685B68B3F5A02F0CD1784B1B68774AA4
:1053680043F480231360754B1B68744A43F48033FD
:1053780013600BE0714B1B68704A23F48033136091
:105388006E4B1B686D4A23F4802313603B1D1B681A
:105398005B68002B4FD0FCF74BF9C7F88C010AE08B
:1053A800FCF746F90246D7F88C31D31A642B02D998
:1053B800032300F058BD4FF40033C7F87031D7F815
:1053C800703193FAA3F3C7F86C31D7F86C31B3FA9C
:1053D80083F3DBB25B09DBB243F00103DBB2012BE1
:1053E80002D1564B1B680BE04FF40033C7F8683105
:1053F800D7F8683193FAA3F3C7F864314F4B5B6A67
:105408004FF40032C7F86021D7F8602192FAA2F26F
:10541800C7F85C21D7F85C21B2FA82F252B242F0A6
:10542800200252B2D2B202F01F02D34003F00103AD
:10543800002BB5D050E0FCF7FBF8C7F88C010AE068
:10544800FCF7F6F80246D7F88C31D31A642B02D948
:10545800032300F008BD4FF40033C7F85831D7F8DC
:10546800583193FAA3F3C7F85431D7F85431B3FA43
:1054780083F3DBB25B09DBB243F00103DBB2012B40
:1054880002D12E4B1B680BE04FF40033C7F85031A4
:10549800D7F8503193FAA3F3C7F84C31274B5B6A1E
:1054A8004FF40032C7F84821D7F8482192FAA2F2FF
:1054B800C7F84421D7F84421B2FA82F252B242F036
:1054C800200252B2D2B202F01F02D34003F001030D
:1054D800002BB5D100E000BF3B1D1B681B6803F023
:1054E8000203002B00F05281144B5B6803F00C039D
:1054F800002B0BD0114B5B6803F00C03082B65D114
:105508000E4B5B6803F48033002B5FD10223C7F88E
:105518004031D7F8403193FAA3F3C7F83C31D7F8B4
:105528003C31B3FA83F3DBB25B09DBB243F001032E
:10553800DBB2012B04D1014B1B680CE000100240C8
:105548000223C7F83831D7F8383193FAA3F3C7F8EC
:105558003431D14B5B6A0222C7F83021D7F83021A9
:1055680092FAA2F2C7F82C21D7F82C21B2FA82F2CB
:1055780052B242F0200252B2D2B202F01F02D3401D
:1055880003F00103002B07D03B1D1B681B69012B8F
:1055980002D0012300F067BCBF4B1B6823F0F80260
:1055A8003B1D1B685969F823C7F82831D7F82831FB
:1055B80093FAA3F3C7F82431D7F82431B3FA83F365
:1055C80001FA03F3B44913430B60DFE03B1D1B688A
:1055D8001B69002B7AD00123C7F82031D7F8203176
:1055E80093FAA3F3C7F81C31D7F81C31B3FA83F345
:1055F8009B0003F1844303F584031A4601231360D7
:10560800FCF716F8C7F88C010AE0FCF711F8024617
:10561800D7F88C31D31A022B02D9032300F023BC0C
:105628000223C7F81831D7F8183193FAA3F3C7F84B
:105638001431D7F81431B3FA83F3DBB25B09DBB268
:1056480043F00103DBB2012B02D1934B1B680AE044
:105658000223C7F81031D7F8103193FAA3F3C7F82B
:105668000C318D4B5B6A0222C7F80821D7F8082154
:1056780092FAA2F2C7F80421D7F80421B2FA82F20A
:1056880052B242F0200252B2D2B202F01F02D3400C
:1056980003F00103002BB8D07F4B1B6823F0F802FE
:1056A8003B1D1B685969F823C7F80031D7F800314A
:1056B80093FAA3F3C7F8FC30D7F8FC30B3FA83F3B6
:1056C80001FA03F3744913430B605FE00123C7F841
:1056D800F830D7F8F83093FAA3F3C7F8F430D7F8CE
:1056E800F430B3FA83F39B0003F1844303F5840396
:1056F8001A4600231360FBF79BFFC7F88C0109E0EB
:10570800FBF796FF0246D7F88C31D31A022B01D942
:105718000323A8E30223C7F8F030D7F8F03093FA50
:10572800A3F3C7F8EC30D7F8EC30B3FA83F3DBB265
:105738005B09DBB243F00103DBB2012B02D1564B0C
:105748001B680AE00223C7F8E830D7F8E83093FA74
:10575800A3F3C7F8E430504B5B6A0222C7F8E02095
:10576800D7F8E02092FAA2F2C7F8DC20D7F8DC20BC
:10577800B2FA82F252B242F0200252B2D2B202F02F
:105788001F02D34003F00103002BB9D13B1D1B6856
:105798001B6803F00803002B00F0B0803B1D1B685A
:1057A8009B69002B54D00123C7F8D830D7F8D830DC
:1057B80093FAA3F3C7F8D430D7F8D430B3FA83F305
:1057C8009B001A46354B13441A4601231360FBF716
:1057D8002FFFC7F88C0109E0FBF72AFF0246D7F82C
:1057E8008C31D31A022B01D903233CE30223C7F8D7
:1057F800D030D7F8D03093FAA3F3C7F8CC300223CF
:10580800C7F8C830D7F8C83093FAA3F3C7F8C4303C
:10581800214B5A6A0223C7F8C030D7F8C03093FA30
:10582800A3F3C7F8BC30D7F8BC30B3FA83F35BB244
:1058380043F060035BB2DBB203F01F0322FA03F309
:1058480003F00103002BC7D00120FBF7FBFE55E056
:105858000123C7F8B830D7F8B83093FAA3F3C7F8DC
:10586800B430D7F8B430B3FA83F39B001A460B4B25
:1058780013441A4600231360FBF7DAFEC7F88C01BD
:105888000EE0FBF7D5FE0246D7F88C31D31A022B6F
:1058980006D90323E7E200BF001002408004424219
:1058A8000223C7F8B030D7F8B03093FAA3F3C7F89B
:1058B800AC300223C7F8A830D7F8A83093FAA3F37E
:1058C800C7F8A430B74B5A6A0223C7F8A030D7F8F4
:1058D800A03093FAA3F3C7F89C30D7F89C30B3FAFA
:1058E80083F35BB243F060035BB2DBB203F01F03E8
:1058F80022FA03F303F00103002BC2D13B1D1B68FE
:105908001B6803F00403002B00F01A81A54BDB6928
:10591800A44A43F08053D361A24BDB6903F0805261
:1059280007F108031A6007F108031B689E4B1B6800
:105938009D4A43F480731360FBF77AFEC7F88C0125
:1059480009E0FBF775FE0246D7F88C31D31A642BB1
:1059580001D9032387E2944B1B6803F48073002B5F
:10596800EFD03B1D1B68DB68012B06D18D4B1B6AF2
:105978008C4A43F0010313622FE03B1D1B68DB6870
:10598800002B0CD1874B1B6A864A23F00103136254
:10599800844B1B6A834A23F0040313621DE03B1DFA
:1059A8001B68DB68052B0CD17E4B1B6A7D4A43F0D4
:1059B800040313627B4B1B6A7A4A43F001031362A8
:1059C8000BE0784B1B6A774A23F001031362754B8F
:1059D8001B6A744A23F0040313623B1D1B68DB68CF
:1059E800002B55D0FBF724FEC7F88C010BE0FBF722
:1059F8001FFE0246D7F88C31D31A41F288329342FF
:105A080001D903232FE20223C7F89830D7F898303A
:105A180093FAA3F3C7F8943007F1900302221A60AF
:105A280007F190031B6893FAA3F207F18C031A603D
:105A380007F18C031B68B3FA83F3DBB25B09DBB2B3
:105A480043F00203DBB2022B02D1564B1B6A01E082
:105A5800544B5B6A07F188020221116007F1880242
:105A6800126892FAA2F107F18402116007F1840228
:105A78001268B2FA82F252B242F0400252B2D2B284
:105A880002F01F02D34003F00103002BAFD057E010
:105A9800FBF7CEFDC7F88C010BE0FBF7C9FD02460A
:105AA800D7F88C31D31A41F28832934201D90323B3
:105AB800D9E107F1800302221A6007F180031B680D
:105AC80093FAA3F207F17C031A6007F17803022224
